{
  "contractName": "funders",
  "abi": [
    {
      "inputs": [
        {
          "internalType": "uint256",
          "name": "",
          "type": "uint256"
        }
      ],
      "name": "Votes",
      "outputs": [
        {
          "internalType": "uint256",
          "name": "",
          "type": "uint256"
        }
      ],
      "stateMutability": "view",
      "type": "function",
      "constant": true
    },
    {
      "inputs": [
        {
          "internalType": "uint256",
          "name": "",
          "type": "uint256"
        }
      ],
      "name": "participants",
      "outputs": [
        {
          "internalType": "address",
          "name": "",
          "type": "address"
        }
      ],
      "stateMutability": "view",
      "type": "function",
      "constant": true
    },
    {
      "inputs": [],
      "name": "giveVote0",
      "outputs": [],
      "stateMutability": "nonpayable",
      "type": "function"
    },
    {
      "inputs": [],
      "name": "giveVote1",
      "outputs": [],
      "stateMutability": "nonpayable",
      "type": "function"
    },
    {
      "inputs": [],
      "name": "giveVote2",
      "outputs": [],
      "stateMutability": "nonpayable",
      "type": "function"
    },
    {
      "inputs": [],
      "name": "giveVote3",
      "outputs": [],
      "stateMutability": "nonpayable",
      "type": "function"
    },
    {
      "inputs": [],
      "name": "totalVotes",
      "outputs": [
        {
          "internalType": "uint256",
          "name": "",
          "type": "uint256"
        }
      ],
      "stateMutability": "view",
      "type": "function",
      "constant": true
    },
    {
      "inputs": [],
      "name": "mostVoted",
      "outputs": [
        {
          "internalType": "uint256",
          "name": "",
          "type": "uint256"
        }
      ],
      "stateMutability": "view",
      "type": "function",
      "constant": true
    },
    {
      "inputs": [],
      "name": "alreadyVotedCheck",
      "outputs": [
        {
          "internalType": "bool",
          "name": "",
          "type": "bool"
        }
      ],
      "stateMutability": "view",
      "type": "function",
      "constant": true
    }
  ],
  "bytecode": "0x608060405234801561001057600080fd5b50610b81806100206000396000f3fe608060405234801561001057600080fd5b50600436106100935760003560e01c806335c1d3491161006657806335c1d349146100d4578063571f8c1314610104578063781825d11461010e578063ac2987ff1461012c578063b9832e111461015c57610093565b80630aad4a05146100985780630d15fd77146100a25780631264ef45146100c05780631dd97b46146100ca575b600080fd5b6100a061017a565b005b6100aa6102ba565b6040516100b79190610943565b60405180910390f35b6100c861030b565b005b6100d261044a565b005b6100ee60048036038101906100e9919061098f565b61058a565b6040516100fb91906109fd565b60405180910390f35b61010c6105c9565b005b610116610709565b6040516101239190610943565b60405180910390f35b6101466004803603810190610141919061098f565b61085f565b6040516101539190610943565b60405180910390f35b61016461087a565b6040516101719190610a33565b60405180910390f35b60003390506000805b60048054905081101561021a578273ffffffffffffffffffffffffffffffffffffffff16600482815481106101bb576101ba610a4e565b5b9060005260206000200160009054906101000a900473ffffffffffffffffffffffffffffffffffffffff1673ffffffffffffffffffffffffffffffffffffffff16141561020757600191505b808061021290610aac565b915050610183565b5060008114156102b6576004829080600181540180825580915050600190039060005260206000200160009091909190916101000a81548173ffffffffffffffffffffffffffffffffffffffff021916908373ffffffffffffffffffffffffffffffffffffffff1602179055506001600060016004811061029e5761029d610a4e565b5b0160008282546102ae9190610af5565b925050819055505b5050565b6000806000905060005b600481101561030357600081600481106102e1576102e0610a4e565b5b0154826102ee9190610af5565b915080806102fb90610aac565b9150506102c4565b508091505090565b60003390506000805b6004805490508110156103ab578273ffffffffffffffffffffffffffffffffffffffff166004828154811061034c5761034b610a4e565b5b9060005260206000200160009054906101000a900473ffffffffffffffffffffffffffffffffffffffff1673ffffffffffffffffffffffffffffffffffffffff16141561039857600191505b80806103a390610aac565b915050610314565b506000811415610446576004829080600181540180825580915050600190039060005260206000200160009091909190916101000a81548173ffffffffffffffffffffffffffffffffffffffff021916908373ffffffffffffffffffffffffffffffffffffffff16021790555060016000806004811061042e5761042d610a4e565b5b01600082825461043e9190610af5565b925050819055505b5050565b60003390506000805b6004805490508110156104ea578273ffffffffffffffffffffffffffffffffffffffff166004828154811061048b5761048a610a4e565b5b9060005260206000200160009054906101000a900473ffffffffffffffffffffffffffffffffffffffff1673ffffffffffffffffffffffffffffffffffffffff1614156104d757600191505b80806104e290610aac565b915050610453565b506000811415610586576004829080600181540180825580915050600190039060005260206000200160009091909190916101000a81548173ffffffffffffffffffffffffffffffffffffffff021916908373ffffffffffffffffffffffffffffffffffffffff1602179055506001600060036004811061056e5761056d610a4e565b5b01600082825461057e9190610af5565b925050819055505b5050565b6004818154811061059a57600080fd5b906000526020600020016000915054906101000a900473ffffffffffffffffffffffffffffffffffffffff1681565b60003390506000805b600480549050811015610669578273ffffffffffffffffffffffffffffffffffffffff166004828154811061060a57610609610a4e565b5b9060005260206000200160009054906101000a900473ffffffffffffffffffffffffffffffffffffffff1673ffffffffffffffffffffffffffffffffffffffff16141561065657600191505b808061066190610aac565b9150506105d2565b506000811415610705576004829080600181540180825580915050600190039060005260206000200160009091909190916101000a81548173ffffffffffffffffffffffffffffffffffffffff021916908373ffffffffffffffffffffffffffffffffffffffff160217905550600160006002600481106106ed576106ec610a4e565b5b0160008282546106fd9190610af5565b925050819055505b5050565b60008060009050600080806000905060005b60048110156107c1576000816004811061073857610737610a4e565b5b01549250600080826004811061075157610750610a4e565b5b0154146107ae5760006001826107679190610af5565b90505b60048110156107ac576000816004811061078757610786610a4e565b5b015484141561079957600192506107ac565b80806107a490610aac565b91505061076a565b505b80806107b990610aac565b91505061071b565b5060005b60048110156108265783600082600481106107e3576107e2610a4e565b5b01541115610813576001816107f89190610af5565b94506000816004811061080e5761080d610a4e565b5b015493505b808061081e90610aac565b9150506107c5565b50600084141561083e576101f494505050505061085c565b600181141561085457600594505050505061085c565b839450505050505b90565b6000816004811061086f57600080fd5b016000915090505481565b60008033905060005b60048054905081101561092057600481815481106108a4576108a3610a4e565b5b9060005260206000200160009054906101000a900473ffffffffffffffffffffffffffffffffffffffff1673ffffffffffffffffffffffffffffffffffffffff168273ffffffffffffffffffffffffffffffffffffffff16141561090d57600192505050610927565b808061091890610aac565b915050610883565b5060009150505b90565b6000819050919050565b61093d8161092a565b82525050565b60006020820190506109586000830184610934565b92915050565b600080fd5b61096c8161092a565b811461097757600080fd5b50565b60008135905061098981610963565b92915050565b6000602082840312156109a5576109a461095e565b5b60006109b38482850161097a565b91505092915050565b600073ffffffffffffffffffffffffffffffffffffffff82169050919050565b60006109e7826109bc565b9050919050565b6109f7816109dc565b82525050565b6000602082019050610a1260008301846109ee565b92915050565b60008115159050919050565b610a2d81610a18565b82525050565b6000602082019050610a486000830184610a24565b92915050565b7f4e487b7100000000000000000000000000000000000000000000000000000000600052603260045260246000fd5b7f4e487b7100000000000000000000000000000000000000000000000000000000600052601160045260246000fd5b6000610ab78261092a565b91507fffffffffffffffffffffffffffffffffffffffffffffffffffffffffffffffff821415610aea57610ae9610a7d565b5b600182019050919050565b6000610b008261092a565b9150610b0b8361092a565b9250827fffffffffffffffffffffffffffffffffffffffffffffffffffffffffffffffff03821115610b4057610b3f610a7d565b5b82820190509291505056fea2646970667358221220b959658db41f869d8917994bfbc992ab64f10daf22d6017be71f1f90fe7fc4e864736f6c63430008090033",
  "immutableReferences": {},
  "source": "// SPDX-License-Identifier: GPL-3.0\npragma solidity >=0.8.2 <0.9.0;\n\ncontract funders{\n    //4 parties are competing and voter has to select from this 4 parties/\n\n    uint[4] public Votes;   //array where votes per party will be stored\n    address[] public participants; //storing address to make sure one person wont be able to vote twice\n\n    function  giveVote0() public{\n       // require(_partyNumber>=0 && _partyNumber<4);\n        address voter = msg.sender;\n        uint flag = 0;\n        for(uint i =0;i<participants.length;i++){\n            if(participants[i]==voter){\n                flag=1;\n            }\n        }\n        if(flag==0){\n            participants.push(voter);\n           \n          \n                    Votes[0]+=1;\n                \n      \n        \n    }  \n    }\n        function  giveVote1() public{\n       // require(_partyNumber>=0 && _partyNumber<4);\n        address voter = msg.sender;\n        uint flag = 0;\n        for(uint i =0;i<participants.length;i++){\n            if(participants[i]==voter){\n                flag=1;\n            }\n        }\n        if(flag==0){\n            participants.push(voter);\n           \n          \n                    Votes[1]+=1;\n                \n      \n        \n    }  \n    }\n        function  giveVote2() public{\n     //   require(_partyNumber>=0 && _partyNumber<4);\n        address voter = msg.sender;\n        uint flag = 0;\n        for(uint i =0;i<participants.length;i++){\n            if(participants[i]==voter){\n                flag=1;\n            }\n        }\n        if(flag==0){\n            participants.push(voter);\n           \n          \n                    Votes[2]+=1;\n                \n      \n        \n    }  \n    }\n        function  giveVote3() public{\n    //    require(_partyNumber>=0 && _partyNumber<4);\n        address voter = msg.sender;\n        uint flag = 0;\n        for(uint i =0;i<participants.length;i++){\n            if(participants[i]==voter){\n                flag=1;\n            }\n        }\n        if(flag==0){\n            participants.push(voter);\n           \n          \n                    Votes[3]+=1;\n                \n      \n        \n    }  \n    }\n  \n    function totalVotes() public view returns(uint){ \n        uint totalvote=0;\n        for(uint i=0;i<Votes.length;i++){\n            totalvote+=Votes[i];\n        }\n        return totalvote;\n    }\n    function mostVoted() public view returns(uint)  {\n        uint index = 0;\n        uint maxValue = 0;\n        uint temp;\n        uint flag = 0;\n        for(uint i = 0; i < Votes.length; i++) {\n            temp = Votes[i];\n            if(Votes[i]!=0){\n                for(uint j = i+1; j < Votes.length; j++) {\n                    if((temp == Votes[j])) {\n                    flag = 1;\n                    break;\n                    }\n                }\n            }\n        }\n        for(uint i = 0; i<Votes.length;i++){\n            if(Votes[i]>maxValue){\n                index = i+1;\n                maxValue=Votes[i];\n            }\n        }\n        if(index == 0){\n            return 500;\n        } \n        else if(flag == 1){\n            return 5;\n        }\n        else{\n            return index;\n        }\n    }\n        \n  function alreadyVotedCheck() public view returns(bool){\n        address clicker = msg.sender;\n        for(uint i = 0; i<participants.length ; i++){\n            if(clicker==participants[i]){\n             return true;\n            }\n        }\n         return false;\n    }\n}",
  "sourcePath": "C:\\Users\\OS\\Desktop\\blockchain\\contracts\\funders.sol",
  "compiler": {
    "name": "solc",
    "version": "0.8.9+commit.e5eed63a.Emscripten.clang"
  },
  "schemaVersion": "3.4.14",
  "updatedAt": "2023-06-11T18:43:02.421Z",
  "networkType": "ethereum",
  "devdoc": {
    "kind": "dev",
    "methods": {},
    "version": 1
  },
  "userdoc": {
    "kind": "user",
    "methods": {},
    "version": 1
  }
}